:1000000000000220BD850000E9850000E9850000B0
:10001000E9850000E9850000E9850000E985000028
:10002000E9850000E9850000E985000061650000C0
:10003000E9850000E9850000216700007167000084
:1000400075520000E9850000793D0000B5400000D0
:10005000E9850000E9850000E9850000E9850000E8
:10006000E9850000E9850000E9850000E92C000031
:10007000E9850000E9850000E9850000E9850000C8
:10008000E9850000E9850000E9850000E9850000B8
:100090003D41000069410000E9850000E98500005C
:1000A000F1400000E98500009D3D0000E985000069
:1000B000E9850000E9850000E9850000E985000088
:1000C000E9850000E9850000E9850000E985000078
:1000D000E9850000E9850000E985000010B5054CC0
:1000E000237833B9044B13B10448AFF300800123E4
:1000F000237010BD00050020000000005093000098
:1001000008B5064B1BB106480649AFF30080064808
:10011000036813B1054B03B1984708BD0000000008
:10012000509300000405002020040020000000007F
:10013000154B002B08BF134B9D46A3F5803A0021B9
:100140008B460F461348144A121A09F01DF80F4B3C
:10015000002B00D098470E4B002B00D09847002072
:10016000002104000D000D48002802D00C48AFF318
:10017000008008F0C3FF2000290000F0A9FA08F071
:10018000A9FF00BF000008000000022000000000DE
:10019000000000000005002058B80020000000000A
:1001A0000000000080B582B000AF0C4B1B687B6084
:1001B0003B46184605F0F0FC7B681B0E0F2B0AD956
:1001C0003B78032B07D1064B054A126822F05002F8
:1001D00042F010021A600837BD4680BDFC81E00F76
:1001E000C0800C4080B500AFFFF7DCFF02F05CFC84
:1001F00002F044FD03F0E0FF4FF4E13003F0AAFE0B
:100200004FF4E13003F056FE4FF4165003F0E8FED1
:1002100003F0EEFC03F05AFD02F0E4FB02F056FCA2
:1002200000F028FD00F050FB084B1B7818464021D9
:1002300000F070FB03F074FAFF2003F07BFEFF2058
:1002400003F0BEFEFF2003F009FF80BD0100002087
:1002500080B500AF02F02AFA02F0C0FA02F05EF8B0
:1002600001200021032206F059FB02460D4B1A60C3
:100270000D4802F02BFD0D4801F01EFE0C4803F066
:100280006DFD0C4803F0FAFE0B4803F005FFFE205D
:1002900003F050FEFE2003F093FEFE2003F0DEFE8E
:1002A00080BD00BF0067002029280000550900001C
:1002B000E502000069290000BD29000080B400AFFC
:1002C00000BF064BDB68092BFBD9044BDB689AB2F5
:1002D000034B1A80BD465DF8047B70470020084040
:1002E0005CB6002080B400AF124B9B780133DAB2C9
:1002F000104B9A700F4B9B783B2B00D816E00D4BA0
:1003000000229A700B4BDB780133DAB2094BDA70BA
:10031000084BDB783B2B00D808E0064B0022DA7054
:10032000044B1B790133DAB2024B1A71BD465DF8FA
:10033000047B70475CB6002080B483B000AF786067
:100340000B46FB70FA787B685A600C37BD465DF847
:10035000047B704780B582B000AF786003F04AFF3D
:1003600002F09CFCFA2003F079FE1D4BDB79184665
:1003700003F074FE1A4B9B79184603F06FFE184B7E
:100380005B79184603F06AFE154B1B79184603F09B
:1003900065FE134BDB78184603F060FE104B9B782C
:1003A000184603F05BFE0F4BDB68002B01D00123E6
:1003B00000E00023DBB2184603F050FE094BDB6877
:1003C0001B0A002B01D0012300E00023DBB21846FA
:1003D00003F044FE4FF47A7007F034F8BEE700BF34
:1003E0005CB600200020084080B588B002AF78607D
:1003F00002F046FB0346BB7503F0FCFE642007F0E9
:1004000021F807F10803504A0092022201920020CD
:100410000121002204F09AFF4C480421FFF78CFFD1
:1004200000BF4A4B9B6803F00203002BF9D1BB7D50
:10043000002B18D00023FB7512E0F97DFB7D9B009B
:1004400007F11802134453F8102CBB7D9A408B001F
:1004500007F118010B4443F8102CFB7D0133FB75A9
:10046000FB7D022BE9D9BB68184608F0E5FA024685
:100470000B461046194632A3D3E9002308F052FB7D
:1004800002460B46104619464FF00002304B08F06A
:1004900049FB02460B461046194608F055FD024638
:1004A0002C4B5A60FB68184608F0C6FA02460B4609
:1004B0001046194622A3D3E9002308F033FB024675
:1004C0000B46104619464FF00002214B08F02AFB5C
:1004D00002460B461046194608F036FD02461D4BF3
:1004E0009A603B69184608F0A7FA02460B46104688
:1004F000194613A3D3E9002308F014FB02460B4668
:10050000104619464FF00002114B08F00BFB024653
:100510000B461046194608F017FD02460D4B1A60AF
:100520000C4B9B6818460C4908F0ACFD0346002BA9
:100530004FF47A7006F086FF5EE700BFAFF30080ED
:100540007B14AE47E17A4A3F28200040002000405B
:100550000000184008B4002000004041AFF30080C4
:1005600080B584B000AF78600123BB7301237B7337
:1005700003F040FEBB7BDBB2012B60D17B7BDBB2A7
:10058000012B06D102F092FB334B9B78FB730023C7
:100590007B7302F0BFFB0346002B3AD02F4B2F4A50
:1005A000526842F004025A600023BB73FD2003F03E
:1005B00055FD294BDB79184603F050FD264B9B79FE
:1005C000184603F04BFD244B5B79184603F046FDBB
:1005D000214B1B79184603F041FD1F4BDB78184671
:1005E00003F03CFD1C4B9B78184603F037FD1B4B7A
:1005F000DB68002B01D0012300E00023DBB21846AA
:1006000003F02CFD154BDB681B0ADBB2184603F028
:1006100025FD114B9B7803F13C02FB7BD11A104B5B
:1006200081FB03230B445A11CB17D21A13461B012B
:100630009B1A9B00CA1A282A01DD0023BB73BB7BCF
:10064000DBB2002B06D10123BB7301237B7302F0C5
:1006500035FB8DE78CE700BF5CB60020002008402A
:100660008988888880B582B000AF786003F0C2FDC9
:100670000A480B4900F0FEFC094800F093FD02F027
:100680002FF90848084900F0F5FC074800F08AFDFA
:1006900002F07CF90A2006F0D5FEE7E704670020A7
:1006A00038B4002040B5002054B5002080B582B099
:1006B00000AF786003F09EFDFCE700BF80B483B01C
:1006C00000AF78600C37BD465DF8047B704700BF13
:1006D00080B582B002AFFFF785FDFFF7B9FD0123BA
:1006E00000930023019318481849C822002306F0FC
:1006F00081FD012300930023019315481549C82269
:10070000002306F077FD0123009300230193124894
:100710001249C822002306F06DFD01230093002337
:1007200001930F480F49C822002306F063FD0123FF
:100730000093002301930C480C49C822002306F0C3
:1007400059FD06F0B1FEFEE755030000B09200002F
:10075000E9030000B892000061050000C0920000AB
:1007600065060000C8920000AD060000D0920000AF
:1007700080B485B000AF786039607B6803F10473A2
:10078000DA003B6813449B00FB60FB681B6818465B
:100790001437BD465DF8047B704700BF80B582B05A
:1007A00000AF03463960FB71FB79002B0DD0FB795C
:1007B000012B0AD0FB79022B07D0FB79032B04D045
:1007C000FB79042B01D0FB79052BFA791346DB006A
:1007D00013449B001C3303F1804303F5C0431846C8
:1007E0003968FFF7C5FF034618460837BD4680BD88
:1007F00080B483B000AF03463960FB71FB79002BF6
:100800000DD0FB79012B0AD0FB79022B07D0FB79A5
:10081000032B04D0FB79042B01D0FB79052B09486D
:10082000FA793B68012101FA03F319461346DB000C
:1008300013449B000344103359600C37BD465DF8E8
:10084000047B70470060004080B483B000AF034673
:100850003960FB71FB79002B0DD0FB79012B0AD09D
:10086000FB79022B07D0FB79032B04D0FB79042BF7
:1008700001D0FB79052B0948FA793B68012101FA7F
:1008800003F319461346DB0013449B000344103363
:1008900019600C37BD465DF8047B7047006000406E
:1008A00080B582B000AF00F08BFA0023FB8002E03D
:1008B000FB880133FB80FA884FF6FF739A42F7D129
:1008C0000837BD4680BD00BF80B582B000AFFFF7DE
:1008D000E7FF0CE00023FB8002E0FB880133FB8094
:1008E000FA8842F20F739A42F7D9FFF7D9FF084B03
:1008F0001B681B68184600F083FA0346002BE9D1F9
:1009000000200021002200F01FFB0837BD4680BDFB
:10091000A403002080B584B002AF02460B46FA71F2
:10092000BB71012000F066FB00200021002200F0D6
:100930000BFBBB799BB2FA79082100910821019148
:10094000104600211A46002300F0D2FA0837BD46AF
:1009500080BD00BF80B582B000AF3960134602464B
:10096000FA71BB71032000F031FB012000F042FB63
:1009700000200021002200F0E7FABB791846396810
:1009800000F058FBBB799BB2FA79104630211A4629
:1009900000F086FA0837BD4680BD00BF80B584B040
:1009A00000AF03463960FB710023FB7342F2107302
:1009B000BB811BE000F0E6F8442000F0FDF800F0F9
:1009C00007F90346FB73FB7BFF2B0AD1FB79002B56
:1009D00004D0FB791846396800F010F900F0DAF815
:1009E00007E000F0D7F8BB89013BBB81BB89002B36
:1009F000E0D1BB89002B00D1FEE7FB7BFF2B02D1AE
:100A0000034B01221A70FB7B18461037BD4680BD90
:100A10002405002080B582B000AF03463960FB7129
:100A2000FB79012B03D1FB790133FB7102E001E07B
:100A300000F06AF8094B1B78002BF9D000F0A2F8FF
:100A4000FB791846396800F0CBF800F0A3F8034BA7
:100A500000221A700837BD4680BD00BF2405002063
:100A600080B582B000AF3B600346FB710B46BB71A3
:100A700013467B71BB79002B06D001E000F044F8EF
:100A80000B4B1B78002BF9D000F07CF8FB79184653
:100A900000F092F87B791846396800F0AFF800F062
:100AA00079F8034B00221A700837BD4680BD00BF9D
:100AB0002405002080B582B000AF3B600346FB7187
:100AC0000B46BB7113467B71BB79002B06D001E04E
:100AD00000F01AF80B4B1B78002BF9D000F052F8FD
:100AE000FB79184600F068F87B791846396800F001
:100AF00077F800F04FF8034B00221A700837BD4614
:100B000080BD00BF2405002080B500AF002000217B
:100B1000FFF744FF0346184680BD00BF80B400AF16
:100B2000034B00221A70BD465DF8047B704700BF7E
:100B30002405002080B584B000AFB9607B60034617
:100B4000FB731346BB73FB7B1846B968FFF762FF64
:100B5000BB7B18467968FFF721FF0346184610371C
:100B6000BD4680BD80B500AF02200021FFF76CFEBE
:100B700080BD00BF80B500AF02200021FFF738FE26
:100B800080BD00BF80B500AF01200621FFF730FE19
:100B900080BD00BF80B500AF01200621FFF754FEE5
:100BA00080BD00BF80B500AF02200121FFF7F6FD38
:100BB0000346DBB2184680BD80B582B000AF034665
:100BC000FB71FB79184600F0B3F80837BD4680BDCD
:100BD00080B500AF002000F0ABF80346184680BD9A
:100BE00080B582B000AF03463960FB71FB791846CF
:100BF000396800F0B7F80837BD4680BD80B582B0CF
:100C000000AF03463960FB71FB791846396800F084
:100C1000BFF80837BD4680BD80B483B000AF03463F
:100C2000FB71084B97F907205209F97901F01F0170
:100C3000012000FA01F143F822100C37BD465DF89F
:100C4000047B704700E100E080B584B002AF3960FA
:100C50000146F971BA717B71FA79BB7979790091A2
:100C6000397C0191104639683A6804F00DFD083767
:100C7000BD4680BDB0B588B002AF2948012103F060
:100C80006DFE284B3C461D460FCD0FC495E8030072
:100C900084E80300244BBB600123BB733B4623481D
:100CA000194605F09FF9012003210422012304F0D5
:100CB00051FD012004210122002304F04BFD0120FD
:100CC00005210422012304F045FD01200621042210
:100CD000012304F03FFD022000210422002304F040
:100CE00039FD022001210222002304F033FD0F4BC5
:100CF00040F20B125A65022001210122002304F068
:100D000029FD012300930220012100220123FFF786
:100D10009BFF0B20FFF780FF1837BD46B0BD00BF1B
:100D200000220400D892000040420F0000C800409A
:100D300080B483B000AF0346FB71094BFA795A6364
:100D400000BF074B1B6903F02003002BF9D0044BB5
:100D5000DB69DBB218460C37BD465DF8047B704793
:100D600000C8004080B582B000AF03463960FB7117
:100D700006E03B685A1C3A601B781846FFF7D8FF1C
:100D8000FB795A1EFA71002BF3D10837BD4680BD9E
:100D900090B583B000AF03463960FB7107E03C6853
:100DA000631C3B60FF20FFF7C3FF03462370FB7902
:100DB0005A1EFA71002BF2D10C37BD4690BD00BF10
:100DC00080B582B000AFFFF7CDFE40F6F613FB8092
:100DD00002E0FB88013BFB80FB88002BF9D1FFF789
:100DE000C9FE40F6F613FB8002E0FB88013BFB8066
:100DF000FB88002BF9D1FFF791FE0837BD4680BD77
:100E000080B584B000AF78600023FB730023BB7310
:100E100039E07B685A1C7A601B78BB73BB7B102B54
:100E200001D9042334E00023FB730AE0FB7B7A68DA
:100E30001178194AD1547B6801337B60FB7B013305
:100E4000FB73FA7BBB7B9A42F0D3BB7B18461249FB
:100E500000220023FFF76EFE0346FF2B01D0022382
:100E600016E0FFF79FFE0346002B0CD10020002167
:100E7000002200F069F8094B9B7903F00803002B6E
:100E800001D0042304E07B681B78002BC1D1002330
:100E900018461037BD4680BDE0B70020F0B70020EF
:100EA00080B582B000AF13460246FA710A46BA71A5
:100EB000BB800E4B31221A700C4BFA795A700B4BD7
:100EC000BA799A70BB881B0A9BB2DAB2074BDA7008
:100ED000BB88DAB2054B1A71044B00225A71062006
:100EE0000249FFF797FD0837BD4680BDE0B70020F7
:100EF00080B582B000AFF871B971BA80FB70114B48
:100F000032221A700F4BFA795A700E4BBA799A70D6
:100F1000BB881B0A9BB2DAB20A4BDA70BB88DAB222
:100F2000084B1A71074BFA785A71064B3A7C9A7142
:100F3000044B3A7DDA7108200249FFF76BFD083750
:100F4000BD4680BDE0B7002080B582B000AF13463B
:100F50000246FA710A46BA717B711A4B20221A7046
:100F6000184BFA795A70174BBA799A70154B7A79EF
:100F7000DA70042013490822124BFFF7DBFD114BF6
:100F80001A78114B1A700F4B5A780F4B5A700D4B41
:100F90009A780D4B9A700B4BDA780B4BDA70094B41
:100FA0001A79094B1A71074B5A79074B5A71054B3D
:100FB0009A79054B9A71034BDA79034BDA7108374A
:100FC000BD4680BDE0B70020F0B7002080B582B0FC
:100FD00000AF0346FB71064B34221A70044BFA79BA
:100FE0005A7002200249FFF715FD0837BD4680BD43
:100FF000E0B7002080B582B000AF0346FB710B4B19
:1010000015221A70094BFA795A70022007490222F8
:10101000064BFFF78FFD054B1A78054B1A70034BF3
:101020005A78034B5A700837BD4680BDE0B70020A0
:10103000F0B7002080B582B000AF03463960FB7185
:10104000FB79662000211A463B68FFF733FD08371D
:10105000BD4680BD80B582B000AF03463960FB71EC
:10106000FB79772000211A463B68FFF7F9FC083727
:10107000BD4680BD90B583B000AF786039603B68F5
:1010800093F80531012B01D1002387E080E03B6814
:1010900093F80631002B36D17B689B68032B01D86F
:1010A00000237BE03B6878681946012200F05AFF74
:1010B0003B681B78682B00D06AE07B681A683B6845
:1010C0000133786811461A46032300F07DFF3B6820
:1010D0001A783B68DB789A4205D13B685A783B68BE
:1010E0009B789A4200D053E03B685B780C2B0AD97E
:1010F0003B68012283F806213B6801337868194672
:10110000032200F02FFF3B6893F80631012B3FD1FB
:101110007B689A683B685B7802339A4201D200236D
:101120003CE03B681A1D3B685B78786811461A46BC
:1011300000F018FF3B6803F2031378681946022297
:1011400000F010FF3B6893F80431162B04D03B6885
:10115000002283F806211BE03B6893F803413A68BC
:101160003B685B7804339BB21046194600F0B2FE30
:1011700003469C4204D03B68002283F8062107E026
:101180003B68002283F806213B68012283F8052191
:101190007B689B68002B7FF47AAF002318460C37DE
:1011A000BD4690BD80B584B000AF78600023FB736E
:1011B0007B6893F80531002B01D100237CE07B682C
:1011C0000B333F481946062207F0C6FF0346002BA3
:1011D00005D07B68002283F8052100236CE0002302
:1011E000BB7339E0BA7B37491346DB0013445B001D
:1011F00013440B441B78002B00D12AE000237B739F
:1012000020E0B97B7B7B1A4652001A4453001A46F1
:101210000B46DB000B445B000B441A44294B134480
:101220005A1C7B68053310461946062207F094FFC6
:101230000346002B03D1FB7B0133FB7305E07B7B73
:1012400001337B737B7B022BDBD9FB7B002B00D034
:1012500005E0BB7B0133BB73BB7B052BC2D97B682D
:10126000053319481946062207F076FF0346002B7E
:1012700002D1FB7B0133FB73FB7B002B05D17B6829
:10128000002283F80521002316E07B681B79C3F355
:101290008013DBB2002B02D0012B04D007E078686A
:1012A00000F014F803E0786800F03AF800BF7B68BB
:1012B000002283F80521012318461037BD4680BD62
:1012C0000400002078B300201C05002080B582B007
:1012D00000AF78607B681B79C3F30303DBB2032B99
:1012E0001AD801A252F823F0F912000001130000ED
:1012F0000913000011130000786800F08BF80CE06F
:10130000786800F091F808E0786800F097F804E059
:10131000786800F0A7F800E000BF0837BD4680BD40
:1013200080B582B000AF78607B681B79C3F303039C
:10133000DBB2042B20D801A252F823F05113000095
:1013400059130000611300006913000071130000BD
:10135000786800F091F810E0786800F097F80CE0F9
:10136000786800F09DF808E0786800F0A3F804E0E1
:10137000786800F0A9F800E000BF0837BD4680BDDE
:1013800080B582B000AF78607B685B7C013B0A2B44
:101390003CD801A252F823F0C5130000CD13000081
:1013A000D5130000DD130000E5130000ED1300006D
:1013B000F5130000FD1300000D1400000D140000D3
:1013C00005140000786800F089F820E0786800F0E3
:1013D00065F91CE0786800F09DF918E0786800F085
:1013E000D3FA14E0786800F08BFB10E0786800F026
:1013F0001FFC0CE0786800F097F808E0786800F0CF
:1014000073FC04E0786800F079FC00E000BF083766
:10141000BD4680BD80B483B000AF78600C37BD4658
:101420005DF8047B704700BF80B483B000AF786084
:101430000C37BD465DF8047B704700BF80B582B0B5
:1014400000AF78607868FFF79BFF054B1B68184674
:1014500000210022002305F0B7FA0837BD4680BD01
:101460000067002080B483B000AF78600C37BD46C1
:101470005DF8047B704700BF80B483B000AF786034
:101480000C37BD465DF8047B704700BF80B483B065
:1014900000AF78600C37BD465DF8047B704700BF35
:1014A00080B582B000AF78607868FFF769FF0837D1
:1014B000BD4680BD80B582B000AF78607868FFF728
:1014C0005FFF0837BD4680BD80B582B000AF786051
:1014D0007868FFF755FF0837BD4680BD80B584B0FA
:1014E00000AF78607B68143307F108021046194694
:1014F000042207F040FEFC2002F062FD0023FB7393
:101500000BE0FB7B07F11002134413F8083C18466C
:1015100002F056FDFB7B0133FB73FB7B032BF0D901
:101520001037BD4680BD00BF80B58AB006AF786079
:101530007B6805335348194600F064FE03467B730D
:101540007B6805334F48194600F0A6FE03463B73FF
:101550004D4B7A7B1A703B7B7A68127D120292B2F5
:10156000494941F60E1000FB03F30B4404331A8083
:101570003B7B3A7B444941F60E1000FB02F20A44E1
:10158000043211887A68527D0A4392B23E4941F68C
:101590000E1000FB03F30B4404331A803B7B7A6884
:1015A000927D394941F60E1000FB03F30B449A710A
:1015B0003B7B7A68D27D344941F60E1000FB03F381
:1015C0000B44DA713B7B314A12792F4941F60E10F8
:1015D00000FB03F30B441A723B7B2C4A52792A49D5
:1015E00041F60E1000FB03F30B445A723B7B274A73
:1015F0009279254941F60E1000FB03F30B449A72D1
:101600003B7B224AD279204941F60E1000FB03F3BE
:101610000B44DA727B681A7E1B4B5A707B6814335A
:1016200007220092012201920122029203930423D5
:10163000049317481749184A422300F0A3FB05F00A
:101640007DFF0023FB7315E011481A2101F02AF9F0
:101650000023BB7308E0BB7B0D4AD35C184602F045
:10166000AFFCBB7B0133BB73BB7B192BF3D9FB7B7B
:101670000133FB73FB7B092BE6D905F06DFF1037B7
:10168000BD4680BD78B30020406700205CB60020D6
:1016900070B20020040000200C00002080B584B04F
:1016A00000AF7860FEF70AFE16481749082207F0D7
:1016B00062FD7B68053315481946062207F05BFD7D
:1016C0007B68143312481946082207F054FD0220A3
:1016D0000C49162200F0A2FEFB2002F071FC002350
:1016E000FB7308E0FB7B074AD35C184602F068FCFA
:1016F000FB7B0133FB73FB7B152BF3D91037BD4606
:1017000080BD00BF7CB600205CB6002084B60020FF
:101710008AB6002080B58EB006AF78607B6814333F
:1017200007F10C0210461946042207F024FD07F1C8
:101730000C03043318468849042207F01CFD7B681B
:10174000183307F10C02083210461946022207F03E
:1017500012FD824BDA6807F10C03814811460A2218
:1017600000F064FF7B6814337E481946062207F0B8
:1017700002FD7C4B1B79032B00D0E9E0794B5B79B0
:10178000C3F3C013DBB2002B00D1E1E07B6805336B
:101790007548194600F0F4FC03467B760A23009353
:1017A0000123019301230293002303930023049355
:1017B0006E486F496F4A402300F0E4FA05F0BEFE20
:1017C0000023FB7715E069481A2101F06BF800232C
:1017D000BB7708E0BB7F654AD35C184602F0F0FB9C
:1017E000BB7F0133BB77BB7F192BF3D9FB7F013361
:1017F000FB77FB7F092BE6D905F0AEFE0A2005F04A
:1018000021FE00237B779FE000233B7793E0797EE6
:101810007B7F1A4652001A4453001A460B46DB00DF
:101820000B445B000B441A444F4B13440133524AA0
:1018300051783A7F0132D2B2042000900191029295
:101840000022039200220492484849491A46442340
:1018500000F098FA0023FB7667E04448162101F077
:1018600021F80023BB7608E0BB7E404AD35C1846D3
:1018700002F0A6FBBB7E0133BB76BB7E152BF3D9F2
:10188000FA2002F09DFB3D4BDB78184602F098FBF6
:101890003A4B9B78184602F093FB394BDB681B0AE6
:1018A000DBB2184602F08CFB354BDB68002B01D015
:1018B000012300E00023DBB2184602F081FB314B2C
:1018C0001B68184600214FF4FA62002305F00EFA57
:1018D0000346012B03D1FB7E0133FB7625E0F92083
:1018E00002F06EFB254BDB78184602F069FB234BB8
:1018F0009B78184602F064FB214BDB681B0ADBB2C5
:10190000184602F05DFB1E4BDB68002B01D0012363
:1019100000E00023DBB2184602F052FB164800211B
:1019200044F6103207F030FC12E0FB7E042B94D911
:101930003B7F01333B77104B5B783A7F9A42FFF451
:1019400066AF7B7F01337B777B7F022B7FF65CAFBB
:101950002037BD4680BD00BF60B6002064B60020C1
:101960000010100000B4002078B3002070B20020F6
:10197000040000200C000020406700205CB600201E
:10198000002008400067002090B585B000AF786067
:1019900000237B737B6805335348194600F032FC03
:1019A00003463B737B6805334F48194600F074FCCF
:1019B0000346FB724D4B3A7B1A707B685B78103B99
:1019C0007B737B68DB7C012B13D1FB7A41F60E1213
:1019D00002FB03F303F10802444B13441A1D7B6816
:1019E000053310461946062207F0C5FB3F4B00227F
:1019F0005A800023FB732AE0F97A3C4B5B88FA7B20
:101A000078680244127D394841F60E1404FB01F156
:101A100001440B4403F688439A72F97A334B5B888E
:101A2000FA7B013278680244127D304841F60E1488
:101A300004FB01F101440B4408339A722B4B5B8881
:101A400001339AB2294B5A80FB7B0233FB73FA7B3A
:101A50007B7B9A42D0D37B68DA7C7B689B7C9A4202
:101A60000DD1FB7A022B0AD1214B5B79C3F3000322
:101A7000DBB2002B03D11E4B5B79C3F34003002381
:101A8000BB7324E01B4B1A69BB7B41F60E1101FBB3
:101A900003F303F10801154B0B440A3316481146B2
:101AA0000A2200F0C3FD134B5A69BB7B41F60E11AD
:101AB00001FB03F303F688410C4B0B440A330F4838
:101AC00011460A2200F0B2FDBB7B0133BB73BB7B26
:101AD000022BD7D90548002144F6103207F054FBF9
:101AE0001437BD4690BD00BF78B30020406700208A
:101AF00000B4002064B60020001018000010200080
:101B000080B5A6B006AF78607B681B79C3F303038A
:101B1000DBB2032B42D17B6803F114027B685B7854
:101B2000103B1046194600F0D1FC7B6803F114020B
:101B30007B685B78103BDBB21046194600F0D6FD9F
:101B40007B6805330022009200220192002202925B
:101B50000022039200220492304831491A4602239F
:101B600000F010F92F482D49132200F071FA7B681C
:101B700005330022009200220192002202920022EC
:101B8000039200220492284825491A46022300F0B5
:101B9000F9F826482449132200F05AFA7B681B7989
:101BA000C3F30303DBB2042B35D107F10803184656
:101BB000782100F09FFC7B6805330522009201220A
:101BC00001920122029207F1080203927822049204
:101BD000124813491A46022300F0D4F811480F495D
:101BE0008E2200F035FA7B6805330522009201222F
:101BF00001920122029207F10802039278220492D4
:101C0000094807491A46022300F0BCF8074806496C
:101C10008E2200F01DFA8037BD4680BD94B60020AC
:101C2000040000202C67002070B20020ECB30020DC
:101C300080B584B000AF7860274A07F108031068C8
:101C400018607B6803F114027B685B78103B1046D8
:101C5000194600F067FC7B68DB7C012B27D11F4B0A
:101C600041F204025A600023FB731CE0FB7B01334A
:101C70001B031A4607F10E0310461946012201F014
:101C800091FEBB7BFF2B0BD0FB7B01331B03002B97
:101C900001DA03F6FF731B139BB2184601F026FE10
:101CA000FB7B0133FB73FB7B5BB2002BDEDA7B68D3
:101CB000DA7C7B689B7C9A420AD107F108034FF4D7
:101CC00080501946042201F0B7FE054B054ADA6040
:101CD0001037BD4680BD00BFF092000064B6002002
:101CE00000ED00E00400FA0580B582B000AF786036
:101CF00000F0D4FF0837BD4680BD00BF80B588B076
:101D000006AF78607B6805330B22009201220192B6
:101D100001220292164A039206220492154814499F
:101D20001A46022300F02EF8134812491C2200F034
:101D30008FF910481C2100F0B5FD7B6805330B229C
:101D400000920122019201220292094A0392062284
:101D500004920A4806491A46022300F013F808487C
:101D600006491C2200F074F90837BD4680BD00BF4B
:101D70000400002070B20020ECB3002094B60020D4
:101D80002C67002090B585B000AFF860B9607A602C
:101D9000FB70FB6868221A70FB686822DA70FB68C7
:101DA000FA781A71FB6805331846B968062207F0FD
:101DB000E2F9FB680B3318467968062207F0DBF975
:101DC00097F83030002B3AD197F82030002B12D101
:101DD000FB680D225A70FB680D229A70FB6818464A
:101DE000112100F077F803461A46FB685A74FB6825
:101DF00016229A745DE0FB6810225A70FB6810226C
:101E00009A70FB6897F820205A74FB6897F8242092
:101E10009A74FB6897F82820DA74FA6897F83030DB
:101E20009BB214339BB21046194600F053F8034698
:101E30001A46FB681A75FB6816225A7539E097F83E
:101E400030301033DAB2FB685A7097F83030103304
:101E5000DAB2FB689A70FB6897F820205A74FB6826
:101E600097F824209A74FB6897F82820DA74FB68A6
:101E700003F1140297F830301046F96A1A4607F059
:101E80007AF997F8303003F11404FA6897F8303093
:101E90009BB214339BB21046194600F01BF8034660
:101EA0001A46FB681A5597F830301533FA68162130
:101EB000D1541437BD4690BD80B483B000AF786074
:101EC000034B7A681A600C37BD465DF8047B704797
:101ED0002805002080B485B000AF78600B467B8079
:101EE0000023FB730023BB8109E07B685A1C7A60E6
:101EF0001A78FB7B1344FB73BB890133BB81BA891E
:101F00007B889A42F1D3FB7B18461437BD465DF8B7
:101F1000047B704780B582B000AF786039603B6861
:101F2000002B01D1002318E07B6800221A607B6837
:101F300000225A607B6800229A607B683A68DA6007
:101F4000386807F001F902467B681A617B681B69F3
:101F5000002B01D1002300E0012318460837BD46BD
:101F600080BD00BF80B586B000AFF860B9607A6010
:101F70007B68002B01D1002321E000237B6119E065
:101F8000FB689B68002B0DD0BB685A1CBA60FA68CE
:101F90001169FA6812680A4412781A70F86800F039
:101FA00093F804E0BB685A1CBA6000221A707B697F
:101FB00001337B617A697B689A42E1D30123184639
:101FC0001837BD4680BD00BF80B487B000AFF86051
:101FD000B9607A603B603B68002B01D1002330E0A0
:101FE00000233B6128E0FB689A683B699A421BD357
:101FF000BA683B6913447B61FB68DA687B699A4283
:1020000008D8FB68DA687B69B3FBF2F102FB01F2E6
:102010009B1A7B617B685A1C7A60FA6811697A693D
:102020000A4412781A7004E07B685A1C7A60002215
:102030001A703B6901333B613A693B689A42D2D3DB
:10204000012318461C37BD465DF8047B704700BF6E
:1020500080B586B000AFF860B9607A60F86800F0CB
:102060007BF80346012B01D1002328E0FB68DA68E6
:102070007B689A4201D2002321E0FB689A687B6862
:102080001A44FB68DB689A4201D9002317E0002359
:102090007B610FE0FB681A69FB685B681A44BB68E8
:1020A000591CB9601B781370F86800F031F87B692F
:1020B00001337B617A697B689A42EBD3012318462E
:1020C0001837BD4680BD00BF80B483B000AF7860D4
:1020D0007B689B68013B7A68D268B3FBF2F102FB34
:1020E00001F29A1A7B689A607B681B685A1C7B68AD
:1020F0001A607B681A687B68DB689A4202D17B6849
:1021000000221A600C37BD465DF8047B704700BFA3
:1021100080B483B000AF78607B689B6801337A68D5
:10212000D2680132B3FBF2F102FB01F29A1A7B682A
:102130009A607B685B685A1C7B685A607B685A6847
:102140007B68DB689A4202D17B6800225A600C37B8
:10215000BD465DF8047B704780B483B000AF786003
:102160007B689A687B68DB689A4201D1012300E0B2
:10217000002318460C37BD465DF8047B704700BF4E
:1021800080B584B000AF786039600023FB7331E024
:10219000FA7B79681346DB0013445B0013440B445D
:1021A0001B78002B00D122E00023BB731CE0F97BDD
:1021B000BB7B1A4652001A4453001A460B46DB00FA
:1021C0000B445B000B4413447A68134401333868B2
:1021D0001946062206F0C0FF0346002B01D1FB7B07
:1021E0000CE0BB7B0133BB73BB7B022BDFD9FB7BDA
:1021F0000133FB73FB7B052BCAD9FF23184610372D
:10220000BD4680BD80B584B000AF786039600023E2
:10221000FB7339E0FA7B79681346DB0013445B00FB
:1022200013440B441B78002B00D12AE00023BB731E
:1022300024E0F97BBB7B1A4652001A4453001A462D
:102240000B46DB000B445B000B4413447A681344D9
:10225000013338681946062206F07EFF0346002B3C
:1022600009D1FA7B79681346DB0013445B00134401
:102270000B441B780CE0BB7B0133BB73BB7B022B95
:10228000D7D9FB7B0133FB73FB7B052BC2D9002322
:1022900018461037BD4680BD80B584B000AF786069
:1022A00039600023FB7331E0FA7B79681346DB0069
:1022B00013445B0013440B441B78002B00D122E035
:1022C0000023BB731CE0F97BBB7B1A4652001A4407
:1022D00053001A460B46DB000B445B000B441344CF
:1022E0007A681344013338681946062206F034FF31
:1022F0000346002B01D1BB7B0CE0BB7B0133BB73DE
:10230000BB7B022BDFD9FB7B0133FB73FB7B052BF4
:10231000CAD9FF2318461037BD4680BD80B500AF2F
:10232000124B00221A60114B41F204025A604FF422
:102330000120802100F022F802460C4B9A600C48E4
:10234000802100F01BF80246084BDA600948802122
:1023500000F014F80246054B1A610748802100F08E
:102360000DF80246014B5A6180BD00BF64B60020E3
:1023700000101000001018000010200080B588B078
:1023800000AF786039600023BB613EE0BB691A038F
:102390007B6813443B6107F10F033869194601223A
:1023A00001F000FBFB7BFF2B2CD1BB69002B03D181
:1023B0004FF40123FB612CE000237B611EE03A69AE
:1023C0007B691344A3F5805207F10F0310461946A9
:1023D000012201F0E7FAFB7BFF2B06D13A697B690A
:1023E0001344A3F58053FB610CE07B69B3F5805F78
:1023F00001D13B69FB617B6901337B617B69B3F58B
:10240000805FDCD3BB690133BB61BA693B689A4228
:10241000BCD3FB6918462037BD4680BD80B582B06D
:1024200000AF396013460246FA71BB71FB79052B88
:102430003FD801A252F823F0512400005D2400008F
:10244000692400007D2400008F240000A1240000E6
:10245000BB793868194600F039F82BE0BB79386849
:10246000194600F05FF825E0144B9B684FF40120FB
:1024700019460A223B6800F0D9F81BE00F4BDB68D5
:102480000F4819460A223B6800F0D0F812E00B4BC7
:102490001B690C4819460A223B6800F0C7F809E09E
:1024A000064B5B69084819460A223B6800F0BEF8F3
:1024B00000E000BF0837BD4680BD00BF64B6002005
:1024C00000101000001018000010200080B584B02B
:1024D00000AF786039600023FB60FB689BB2184650
:1024E00001F004FA002079683A6801F0A5FA103783
:1024F000BD4680BD80B582B000AF786039603B6872
:10250000002B03D03B68B3F5805F01D9002305E0C1
:10251000002079683A6801F045FA01231846083727
:10252000BD4680BD80B586B000AF786039603B683D
:102530009B083B753B68DBB203F00303FB7400238D
:10254000FB752BE0FB7D9B0003337A6813441B78FB
:102550003B73FB7D9B0002337A6813441B787B73CB
:10256000FB7D9B0001337A6813441B78BB73FB7DB2
:102570009B007A6813441B78FB732B4B5A6807F156
:102580000C0310461946042201F056FA264B5B68EC
:102590001A1D254B5A60FB7D0133FB75FA7D3B7D8F
:1025A0009A42CFD3FB7C002B3AD00023BB7509E0C5
:1025B000BB7D07F118010B44002203F80C2CBB7DF6
:1025C0000133BB75BA7DFB7CC3F104039A42EFDB98
:1025D00000237B7512E07B7DC3F10303FA7C39682D
:1025E000891A7A7D0A4479680A44127807F1180139
:1025F0000B4403F80C2C7B7D01337B757A7DFB7CCF
:102600009A42E8D3084B5A6807F10C031046194662
:10261000042201F011FA044B5B681A1D024B5A6048
:102620001837BD4680BD00BF64B6002080B586B0B7
:1026300000AFF860B9607A603B60B86839687A6862
:1026400001F0FAF9BA687B681344BB60BB681B0BE6
:102650007B61BB68C3F30B03012B02D17B69013B98
:102660007B617A6940F201139A4208D1FB681B0B27
:102670009BB2184601F03AF9FB68BB6012E07B6937
:102680005A1C07F1130310461946012201F08AF97A
:10269000FB7CFF2B06D07B699BB201339BB21846B3
:1026A00001F024F91837BD4680BD00BF80B5A0B049
:1026B00000AF07F17F0300201946012201F072F9F3
:1026C00097F87F30FF2B01D100230AE03B1D18460D
:1026D0007821FFF70FFF3B1D1846782100F006F820
:1026E000012318468037BD4680BD00BF80B584B049
:1026F00000AF78600B46FB700023FB735DE0FA7B54
:10270000F97B0B46DB000B445B000B4479680B4400
:10271000197830481346DB0013445B00134403442C
:102720000A461A70FA7B1346DB0013445B0013441D
:10273000284A1344591CFA7B1346DB0013445B0000
:10274000134401337A68134408461946062206F0FA
:1027500012FDFA7B1346DB0013445B0013449A1D01
:102760001C4B1344591CFA7B1346DB0013445B00DB
:10277000134407337A68134408461946062206F0C4
:10278000FAFCFA7B1346DB0013445B00134403F1AD
:102790000C02104B1344591CFA7B1346DB00134404
:1027A0005B0013440D337A68134408461946062229
:1027B00006F0E1FCFB7B0133FB73FB7B052B9ED911
:1027C0007B68723304481946062206F0D4FC1037A1
:1027D000BD4680BD78B300200400002080B500AF66
:1027E0000C484FF47A71FFF795FB0B484FF47A7160
:1027F000FFF790FB09484FF47A71FFF78BFB08480D
:102800004FF47A71FFF786FB06484FF47A71FFF7B1
:1028100081FB80BD1867002004670020ECB3002016
:1028200040B500202C67002080B500AF00200021BB
:102830000022FEF789FB154B9B7803F01003002B59
:1028400013D00020FEF7D6FB104B1A78104B1A70ED
:102850000F4B1B7818460F49FEF7FCFB0C4B1B78FF
:102860000D480C491A46FFF7F3FB084B9B7803F021
:102870002003002B08D0094B1B7818464021FEF797
:1028800049F8074B01221A7080BD00BFF0B7002045
:102890009CB700209DB700200467002001000020A5
:1028A0000000002080B582B000AF78600B46FB705E
:1028B00000BF094B1B78002BFBD0084B1A78FB7824
:1028C000104679681A46FEF745F8034B00221A7045
:1028D0000837BD4680BD00BF000000200100002079
:1028E00080B592B000AF002387F847302FE007F1A2
:1028F00046031A4819460122FFF734FB97F8473080
:102900005A1C87F8472097F8462007F148010B44E6
:1029100003F8442C114B9B68002B03D097F84730E9
:10292000402B14D100BF0E4B1B78002BFBD00D4B5E
:1029300019783A1D97F84730084611461A46FEF7AF
:1029400009F8074B00221A70002387F84730034B21
:102950009B68002BCBD14837BD4680BDECB300202F
:10296000000000200100002080B582B000AF786038
:102970000B46FB70FB78044879681A46FFF768FB42
:102980000837BD4680BD00BF40B5002080B582B08D
:1029900000AF09E0FB1D084819460122FFF7E2FAE3
:1029A000FB79184601F0C6FA034B9B68002BF1D166
:1029B0000837BD4680BD00BF2C67002080B582B0BF
:1029C00000AF064BDB69DBB2FB71FB1D0448194607
:1029D0000122FFF73DFB0837BD4680BD004008409F
:1029E0001867002080B586B000AF2248012101F0B1
:1029F000B5FF00233B7400237B740023BB741F23AB
:102A0000FB7400233B7500237B7500233B7100237F
:102A10007B710023BB710023FB710023BB6000238B
:102A20003B7300237B730023BB730023FB730023E2
:102A30003B74002001F03AFD0346FB740E48002170
:102A400001F002FD03463B750223BB710023FB71BD
:102A50004FF4E043BB6007F110030848194601F04A
:102A60005FFC3B1D0548194601F09EFC1837BD462A
:102A700080BD00BF00020500C0CF6A0000200040FA
:102A800080B582B000AF3B1D184603F085F87B7916
:102A9000012B04D13B79012B01D1012300E000235C
:102AA00018460837BD4680BD80B500AF032002F050
:102AB00029FA0448012101F051FF0348012101F0E6
:102AC0004DFF80BD0043020000D2040080B588B0F5
:102AD00000AF1748012101F041FF00233B76154B61
:102AE000FB6100233B7100237B71134BBB60002310
:102AF000FB6002233B7403237B740223BB7400231B
:102B0000FB7400233B7507F11803184602F0BEFC66
:102B10003B1D0020194602F039FC07F1100300208C
:102B200001211A4602F07AFC2037BD4680BD00BF65
:102B300000030200006500200100080080B483B09B
:102B400000AF7860044B7A68C3F81C210C37BD468F
:102B50005DF8047B704700BF0060004080B400AFA8
:102B6000034BD3F814311846BD465DF8047B70471B
:102B70000060004080B483B000AF03463960FB7151
:102B8000FB79002B0DD0FB79012B0AD0FB79022BAE
:102B900007D0FB79032B04D0FB79042B01D0FB7900
:102BA000052B0948FA793B68012101FA03F319461C
:102BB0001346DB0013449B000344103359600C3769
:102BC000BD465DF8047B70470060004080B483B070
:102BD00000AF03463960FB71FB79002B0DD0FB7908
:102BE000012B0AD0FB79022B07D0FB79032B04D0F1
:102BF000FB79042B01D0FB79052B0948FA793B6856
:102C0000012101FA03F319461346DB0013449B002C
:102C10000344103319600C37BD465DF8047B7047E0
:102C20000060004080B483B000AF03463960FB71A0
:102C3000FB79002B0DD0FB79012B0AD0FB79022BFD
:102C400007D0FB79032B04D0FB79042B01D0FB794F
:102C5000052B0948FA793B68012101FA03F319466B
:102C60001346DB0013449B000344183319600C37F0
:102C7000BD465DF8047B70470060004080B500AF42
:102C8000032008210422002302F064FD0320082110
:102C90000422002302F05EFD80BD00BF80B500AFBE
:102CA00003200821FFF7BEFF80BD00BF80B500AF45
:102CB00003200821FFF78AFF80BD00BF80B500AF69
:102CC00003200821FFF756FF80BD00BF80B483B00A
:102CD00000AF7860034B7A681A600C37BD465DF828
:102CE000047B70472C05002080B582B000AFFFF751
:102CF00035FF78607868FFF721FF054B1B68002BD4
:102D000002D0034B1B6898470837BD4680BD00BF03
:102D10002C05002080B582B000AF0023FB71524B20
:102D20009B68002B01D100239AE0FB1D4E481946F9
:102D30000122FFF717F9FB79242B07D14B4B012216
:102D40001A704B4B00221A70002389E0474B1B7806
:102D5000013B032B7FD801A252F823F06D2D000018
:102D6000B72D0000F52D0000152E0000404B1B78FC
:102D70005A1CD1B23E4A1170F9793E4AD1543C4BAB
:102D80001B78042B01D800236AE03A483A4905220F
:102D900006F0E2F90346002B06D0344B00221A70ED
:102DA000334B00221A705AE0304B1B780133DAB2F1
:102DB0002E4B1A7053E0FB792A2B13D02C4B1B7827
:102DC0005A1CD1B22A4A1170F9792A4AD154284B97
:102DD0001B78432B0DD9254B00221A70244B00225F
:102DE0001A703CE0214B1B780133DAB21F4B1A708A
:102DF00035E034E0FB79184600F0D2F803461B01B9
:102E0000DAB21E4B1A70194B1B780133DAB2174B2A
:102E10001A7024E0FB79184600F0C2F803461A46FF
:102E2000164B1B781344DAB2144B1A70104B1B78F4
:102E30001048194600F074F803461A460F4B1B78E9
:102E40009A4207D10A4B1B780A48194600F018F835
:102E5000034605E003E0054B00221A7000BF002383
:102E600018460837BD4680BD186700203005002091
:102E70003105002034050020F49200008405002074
:102E800080B582B000AF78600B46FB707B68113371
:102E90001B78412B01D000233BE0FB783F2B01D86E
:102EA000002336E07B680633184600F05BF80346E3
:102EB0001A461A4B1A717B680833184600F052F80C
:102EC00003461A46154BDA707B680A33184600F041
:102ED00049F803461A46114B9A707B6836331846F8
:102EE00000F040F803461A460C4B5A717B683833A1
:102EF000184600F037F803461A46084B9A717B686B
:102F00003A33184600F02EF803461A46034BDA719E
:102F1000012318460837BD4680BD00BF5CB60020BF
:102F200080B485B000AF78600B46FB707B681B787F
:102F3000FB730123BB7309E0BB7B7A6813441A78E7
:102F4000FB7B5340FB73BB7B0133BB73BA7BFB78CA
:102F50009A42F1D3FB7B18461437BD465DF8047BDB
:102F6000704700BF90B585B000AF78607B681B7874
:102F7000184600F015F803461A46920013445B0009
:102F8000DCB27B6801331B78184600F009F8034671
:102F90002344FB73FB7B18461437BD4690BD00BF2E
:102FA00080B483B000AF0346FB71FB792F2B05D9AA
:102FB000FB79392B02D8FB79303BFB71FB79402B35
:102FC00005D9FB79462B02D8FB79373BFB71FB799E
:102FD00018460C37BD465DF8047B704780B485B059
:102FE00000AF786039607B6803F10473DA003B68F6
:102FF00013449B00FB60FB681B6818461437BD46F2
:103000005DF8047B704700BF80B582B000AF034617
:103010003960FB71FB79002B0DD0FB79012B0AD0B5
:10302000FB79022B07D0FB79032B04D0FB79042B0F
:1030300001D0FB79052BFA791346DB0013449B0082
:103040001C3303F1804303F5C04318463968FFF78A
:10305000C5FF034618460837BD4680BD80B483B01F
:1030600000AF03463960FB71FB79002B0DD0FB7973
:10307000012B0AD0FB79022B07D0FB79032B04D05C
:10308000FB79042B01D0FB79052B0948FA793B68C1
:10309000012101FA03F319461346DB0013449B0098
:1030A0000344103359600C37BD465DF8047B70470C
:1030B0000060004080B483B000AF03463960FB710C
:1030C000FB79002B0DD0FB79012B0AD0FB79022B69
:1030D00007D0FB79032B04D0FB79042B01D0FB79BB
:1030E000052B0948FA793B68012101FA03F31946D7
:1030F0001346DB0013449B000344103319600C3764
:10310000BD465DF8047B70470060004080B500AFAD
:10311000002009210122002302F01CFB00200A21CB
:103120000122002302F016FB0320012101220023CB
:1031300002F010FB032000210422002302F00AFB0E
:10314000032002210422002302F004FB03200321B8
:103150000422002302F0FEFA03200321FFF7AAFF56
:1031600003200221FFF7A6FF03200321FFF776FFCC
:1031700080BD00BF80B500AF0320032104220023DF
:1031800002F0E8FA03200321FFF794FF0320002157
:103190000122002302F0DEFA032001210122002394
:1031A00002F0D8FA002009210122002302F0D2FA0D
:1031B00000200A210122002302F0CCFA80BD00BFCA
:1031C00080B582B000AF0346FB7103200221FFF7F8
:1031D00045FFFB795BB2002B04DA03200021FFF7E7
:1031E00069FF07E003200021FFF738FF03200021DB
:1031F000FFF734FF00BF03200221FFF75BFF00BF92
:1032000003200221FFF72AFFFB7903F04003002B84
:1032100004D003200021FFF74DFF07E00320002129
:10322000FFF71CFF03200021FFF718FF00BF03205A
:103230000221FFF73FFF00BF03200221FFF70EFF2F
:10324000FB7903F02003002B04D003200021FFF7BB
:1032500031FF07E003200021FFF700FF03200021DA
:10326000FFF7FCFE00BF03200221FFF723FF00BF92
:1032700003200221FFF7F2FEFB7903F01003002B7D
:1032800004D003200021FFF715FF07E003200021F1
:10329000FFF7E4FE03200021FFF7E0FE00BF03205C
:1032A0000221FFF707FF00BF03200221FFF7D6FE30
:1032B000FB7903F00803002B04D003200021FFF763
:1032C000F9FE07E003200021FFF7C8FE03200021DC
:1032D000FFF7C4FE00BF03200221FFF7EBFE00BF93
:1032E00003200221FFF7BAFEFB7903F00403002B51
:1032F00004D003200021FFF7DDFE07E003200021BA
:10330000FFF7ACFE03200021FFF7A8FE00BF03205B
:103310000221FFF7CFFE00BF03200221FFF79EFE30
:10332000FB7903F00203002B04D003200021FFF7F8
:10333000C1FE07E003200021FFF790FE03200021DB
:10334000FFF78CFE00BF03200221FFF7B3FE00BF92
:1033500003200221FFF782FEFB7903F00103002B1B
:1033600004D003200021FFF7A5FE07E00320002181
:10337000FFF774FE03200021FFF770FE00BF03205B
:103380000221FFF797FE00BF0837BD4680BD00BF92
:1033900080B582B000AF0023FB7103200221FFF74C
:1033A0005DFE00BF00BF03200221FFF783FE032064
:1033B0000121FFF729FE0346002B03D0FB7963F0C0
:1033C0007F03FB7103200221FFF748FE00BF00BF0F
:1033D00003200221FFF76EFE03200121FFF714FEF8
:1033E0000346002B03D0FB7943F04003FB7103201D
:1033F0000221FFF733FE00BF00BF03200221FFF7C9
:1034000059FE03200121FFF7FFFD0346002B03D0E7
:10341000FB7943F02003FB7103200221FFF71EFE1E
:1034200000BF00BF03200221FFF744FE032001215B
:10343000FFF7EAFD0346002B03D0FB7943F01003AE
:10344000FB7103200221FFF709FE00BF00BF03202C
:103450000221FFF72FFE03200121FFF7D5FD0346D0
:10346000002B03D0FB7943F00803FB7103200221FA
:10347000FFF7F4FD00BF00BF03200221FFF71AFE93
:1034800003200121FFF7C0FD0346002B03D0FB7989
:1034900043F00403FB7103200221FFF7DFFD00BFAF
:1034A00000BF03200221FFF705FE03200121FFF7E3
:1034B000ABFD0346002B03D0FB7943F00203FB7105
:1034C00003200221FFF7CAFD00BF00BF0320022135
:1034D000FFF7F0FD03200121FFF796FD0346002BC7
:1034E00003D0FB7943F00103FB71FB7918460837E1
:1034F000BD4680BD80B582B000AF0346FB710AE0D7
:1035000003200221FFF7AAFDFB79013BFB71032099
:103510000221FFF7CFFDFB79002BF1D10837BD4623
:1035200080BD00BF80B582B000AF0023FB710320D7
:103530000221FFF793FD00BF00BF03200221FFF728
:10354000B9FD03200021FFF75FFD0346002B03D0E8
:10355000FB7943F01003FB7103200121FFF754FDB9
:103560000346002B03D0FB7943F02003FB710020BE
:103570000921FFF749FD0346002B03D0FB7943F0F7
:103580004003FB7100200A21FFF73EFD0346002B9C
:1035900003D0FB7963F07F03FB7103200221FFF767
:1035A0005DFD00BF00BF03200221FFF783FD032064
:1035B0000021FFF729FD0346002B03D0FB7943F0E0
:1035C0000103FB7103200121FFF71EFD0346002BC1
:1035D00003D0FB7943F00203FB7100200921FFF7C0
:1035E00013FD0346002B03D0FB7943F00403FB716A
:1035F00000200A21FFF708FD0346002B03D0FB79CA
:1036000043F00803FB71FB7918460837BD4680BDBF
:1036100080B582B000AF0346FB7103200221FFF7A3
:103620001DFDFB7903F01003002B04D003200021C3
:10363000FFF740FD03E003200021FFF70FFDFB79BA
:1036400003F02003002B04D003200121FFF732FDFB
:1036500003E003200121FFF701FDFB7903F04003A4
:10366000002B04D000200921FFF724FD03E00020F7
:103670000921FFF7F3FCFB795BB2002B04DA002091
:103680000A21FFF717FD03E000200A21FFF7E6FCFF
:1036900003200221FFF70EFD00BF03200221FFF7E8
:1036A000DDFCFB7903F00103002B04D00320002193
:1036B000FFF700FD03E003200021FFF7CFFCFB79BB
:1036C00003F00203002B04D003200121FFF7F2FCDA
:1036D00003E003200121FFF7C1FCFB7903F00403A1
:1036E000002B04D000200921FFF7E4FC03E00020B8
:1036F0000921FFF7B3FCFB7903F00803002B04D08A
:1037000000200A21FFF7D6FC03E000200A21FFF782
:10371000A5FC03200221FFF7CDFC0837BD4680BD84
:1037200080B582B000AF0023BB800023BB71FFF7E0
:1037300021FD00F05DF8002000F0A6F8012000F067
:10374000BFF83B1D184600F06BF80837BD4680BD3A
:1037500080B500AF00F082F8034603F00103002BB0
:1037600014BF00230123DBB2184680BD80B582B0B0
:1037700000AF00237B60FFF7C9FC0620FFF720FDA8
:10378000FFF7F8FC7B6801337B607A68084B9A424C
:1037900001D9002307E000F061F8034603F00203BB
:1037A000002BE8D0012318460837BD4680BD00BF76
:1037B000A086010080B582B000AF00237B6008E0E6
:1037C0007B6801337B607A68084B9A4201D90023F9
:1037D00007E000F043F8034603F00103002BEFD1AC
:1037E000012318460837BD4680BD00BFA0860100F2
:1037F00080B500AFFFF78AFC6620FFF7E1FCFFF71A
:10380000B9FCFFF783FC9920FFF7DAFCFFF7B2FC65
:10381000FFF79EFF0346002B01D0FFF7CBFF80BDD3
:1038200090B585B000AF7860FFF770FC9F20FFF780
:10383000C7FC0023FB7309E0FB7B7A68D418FFF711
:10384000A7FD03462370FB7B0133FB73FB7B022B3D
:10385000F2D9FFF78FFC1437BD4690BD80B582B01A
:1038600000AF0023FB71FFF751FC0520FFF7A8FC18
:10387000FFF78EFD0346FB71FFF77CFCFB791846D2
:103880000837BD4680BD00BF80B582B000AF03469B
:10389000FB71FFF75DFF0346002B0ED0FFF766FFBD
:1038A000FFF734FC0120FFF78BFCFB791846FFF78C
:1038B00087FCFFF75FFCFFF77DFF0837BD4680BD43
:1038C00080B582B000AF0346FB71FFF71FFCFB79A8
:1038D000002B01D0B72300E0E9231846FFF770FC66
:1038E000FFF748FC0837BD4680BD00BF80B584B0F7
:1038F00000AF0346FB80FB881B03FB60FFF728FF3C
:103900000346002B21D0FFF731FFFFF7FFFB2020FC
:10391000FFF756FCFB681B0EDBB21846FFF750FCA6
:10392000FB681B0CDBB21846FFF74AFCFB681B0A5E
:10393000DBB21846FFF744FCFB68DBB21846FFF722
:103940003FFCFFF717FCFFF735FF1037BD4680BD82
:1039500080B582B000AFFFF781FF0346FB71FB79B2
:1039600003F00103002BF6D114E0FFF7CFFB062094
:10397000FFF726FCFFF7FEFBFFF7C8FB0120FFF770
:103980001FFC4020FFF71CFCFFF7F4FBFFF766FF6E
:103990000346FB71FB7903F04003002BE5D00837A9
:1039A000BD4680BD90B587B000AFF860B9607A6061
:1039B000FFF7CEFFFFF7AAFB6B20FFF701FCFB68C8
:1039C0001B0EDBB21846FFF7FBFBFB681B0CDBB2E0
:1039D0001846FFF7F5FBFB681B0ADBB21846FFF73A
:1039E000EFFBFB68DBB21846FFF7EAFB0320002180
:1039F0000122002301F0AEFE032001210122002359
:103A000001F0A8FE0820FFF775FD00237B6109E0A7
:103A1000BA687B69D418FFF785FD034623707B697C
:103A200001337B617A697B689A42F1D3FFF7A2FB8D
:103A30001C37BD4690BD00BF80B586B000AFF860B2
:103A4000B9607A60FFF784FFFFF782FE0346002B20
:103A50004CD0FFF78BFEFFF759FB3820FFF7B0FB88
:103A6000032001210422002301F074FE002009211B
:103A70000422002301F06EFE00200A21042200230C
:103A800001F068FE032000210422002301F062FE01
:103A9000FB681B0EDBB21846FFF7BAFDFB681B0C78
:103AA000DBB21846FFF7B4FDFB681B0ADBB2184611
:103AB000FFF7AEFDFB68DBB21846FFF7A9FD002358
:103AC0007B6109E0BA687B6913441B781846FFF7ED
:103AD0009FFD7B6901337B617A697B689A42F1D3F0
:103AE000FFF748FBFFF734FFFFF764FE1837BD46CA
:103AF00080BD00BF80B483B000AF0346FB71084BAC
:103B000097F907205209F97901F01F01012000FA05
:103B100001F143F822100C37BD465DF8047B704775
:103B200000E100E080B483B000AF0346FB71094BB5
:103B300097F907205209F97901F01F01012000FAD5
:103B400001F1603243F822100C37BD465DF8047B6A
:103B5000704700BF00E100E080B485B000AFF860BE
:103B6000B9607A60FA68BB681B01134438337A681D
:103B70005A601437BD465DF8047B704780B483B04B
:103B800000AF786039607B683A689A610C37BD464F
:103B90005DF8047B704700BF80B483B000AF7860ED
:103BA00039607B683A68DA610C37BD465DF8047BA2
:103BB000704700BF80B483B000AF786039607B6825
:103BC0003A689A620C37BD465DF8047B704700BFC7
:103BD00080B483B000AF786039607B68DA6A3B6894
:103BE0001A437B68DA620C37BD465DF8047B704788
:103BF00080B588B000AF3348012100F0AFFE01234B
:103C00003B7400237B740023BB740023FB740023EC
:103C10003B7500237B750023BB750023FB750023D8
:103C20003B7600237B760023BB760023FB760023C4
:103C30003B7701237B740123BB740023FB740023B7
:103C40003B7100237B710023BB710023FB710023B8
:103C50003B7200237B720023BB720023FB720023A4
:103C60003B7300237B730023BB7302237B7103230D
:103C7000BB7201237B723B1D134800211A4602F0E0
:103C80004BF807F110031048194601F0BFFF0E482A
:103C90008C21FFF781FF0C4800214622FFF75CFFD3
:103CA000094B094A926A42F001029A6202200D21F0
:103CB0000422012301F04EFD034B01225A602037FC
:103CC000BD4680BD006204000004014080B584B0A0
:103CD00000AF1F48022100F0EFFF1E48012100F055
:103CE0003DFE01233B7100237B710023BB71002348
:103CF000FB7100233B7200237B720023BB72002305
:103D0000FB7200233B7300237B730023BB730123EF
:103D10007B7101233B72104800214FF4004201F0F7
:103D2000A1FD0D480021012201F03EFE3B1D0A4885
:103D3000194601F0C3FD08480121FFF749FF1A2089
:103D4000FFF7F0FE1A20FFF7D5FE1037BD4680BD05
:103D500002001800602612000020084080B483B0E2
:103D600000AF7860034B7A681A600C37BD465DF887
:103D7000047B70478C05002080B500AF0548012109
:103D8000FFF7FCFE044B1B68002B02D0024B1B68A4
:103D9000984780BD000001408805002080B500AF35
:103DA00005480121FFF706FF044B1B68002B02D0DA
:103DB000024B1B68984780BD002008408C050020FE
:103DC00080B483B000AF0346FB71084B97F907201E
:103DD0005209F97901F01F01012000FA01F143F8BD
:103DE00022100C37BD465DF8047B704700E100E00F
:103DF00080B483B000AF0346FB71094B97F90720ED
:103E00005209F97901F01F01012000FA01F1603235
:103E100043F822100C37BD465DF8047B704700BFA5
:103E200000E100E080B483B000AF03463960FB716D
:103E300097F90730002B0BDA0D49FB7903F00F03DC
:103E4000043B3A68D2B25201D2B20B441A7609E06E
:103E5000084997F907303A68D2B25201D2B20B44FE
:103E600083F800230C37BD465DF8047B704700BF24
:103E700000ED00E000E100E080B483B000AF7860C6
:103E800039607B683A689A640C37BD465DF8047BFC
:103E9000704700BF80B483B000AF786039607B6842
:103EA000DA6C3B681A437B68DA640C37BD465DF810
:103EB000047B7047B0B588B000AF78601A48012124
:103EC00000F04CFD194B07F108041D460FCD0FC43F
:103ED00095E8030084E803007B683B6107F1080371
:103EE0001348194602F024F804200A210422012371
:103EF00001F030FC04200B210222012301F02AFCF6
:103F00000B4B03225A650A480421FFF7C3FF032025
:103F1000FFF76EFF0320FFF753FF03200A21FFF78F
:103F200081FF2037BD46B0BD00020400FC920000B6
:103F300000C0004080B582B000AF0346FB71FB7942
:103F40000348194602F020F90837BD4680BD00BF7E
:103F500000C00040B0B588B000AF786015480121BE
:103F600000F0FCFC144B07F108041D460FCD0FC4F4
:103F700095E8030084E803007B683B6107F10803D0
:103F80000E48194601F0D4FF052006210422012322
:103F900001F0E0FB052007210122002301F0DAFBFC
:103FA000064B064A526D42F003025A652037BD4661
:103FB000B0BD00BF00320400FC92000000E00040F1
:103FC00080B582B000AF0346FB71FB790348194608
:103FD00002F0DAF80837BD4680BD00BF00E00040BF
:103FE00090B587B000AF78601848022100F064FEF9
:103FF0001748012100F0B2FC164B07F108040FCB63
:1040000084E80F007B683B6107F1080312481946FA
:1040100001F068FD04200E210422012301F09AFB27
:1040200004200F210222012301F094FB0A4B40F2ED
:1040300003225A65084B05229A631820FFF7D8FE21
:104040001820FFF7BDFE1C37BD4690BD03001A00C7
:1040500070071400149300000040084080B582B03F
:1040600000AF0346FB71FB790348194601F07CFD64
:104070000837BD4680BD00BF0040084080B483B013
:1040800000AF7860034B7A681A600C37BD465DF864
:10409000047B70479005002080B483B000AF786047
:1040A000034B7A681A600C37BD465DF8047B704795
:1040B0009405002080B582B000AF0B480421FFF7C3
:1040C000DBFE094802F04CF80346FB71074B1B6806
:1040D000002B05D0054B1B68FA1D1046012198479F
:1040E0000837BD4680BD00BF00C0004090050020DD
:1040F00080B500AF0E4BDB6A03F00103002B09D043
:104100000B4B01225A630B4B1B68002B02D0094B4F
:104110001B689847064BDB6A03F00403002B06D0AC
:10412000054B1B68002B02D0034B1B68984780BDD2
:1041300000400840980500209405002080B500AF9D
:1041400000BF074B1B6903F08003002BF9D0054B20
:104150001B68002B02D0034B1B68984780BD00BF33
:1041600000E000409C05002080B500AF054B012217
:104170009A64054B1B68002B02D0034B1B689847C1
:1041800080BD00BF00E00040A005002080B500AF6A
:10419000014802F00FF880BD0080084080B582B071
:1041A00000AF78600348796802F026F80837BD460A
:1041B00080BD00BF0080084080B584B000AF0520FE
:1041C0000121012200F010FF094A3B1D10685168CF
:1041D00003C3127A1A700023FB720A233B73002375
:1041E0007B723B1D1846FFF7D9FF1037BD4680BDD7
:1041F0002493000080B500AFFFF7C8FF80BD00BF6B
:1042000080B487B000AF786013460A46FA70BB707E
:10421000BB78002B04D01023FB603E4B3B6103E0D6
:104220000023FB603C4B3B617B685A6B3B6913404E
:10423000BB6000237B61FB78062B5BD801A252F8A0
:1042400023F000BF614200007F420000A342000053
:10425000C1420000F5420000F5420000E5420000C6
:104260002E4B5B6803F4FE437A6913437B612B4B4F
:104270005B6803F07F037A6913437B613DE0274B62
:104280005B6803F0FE431B0E1B027A6913437B61DC
:10429000224B5B6803F4FE031B0C7A6913437B61BA
:1042A0002BE01E4B9B6803F4FE437A6913437B614A
:1042B0001A4B9B6803F07F037A6913437B611CE010
:1042C000164B9B6803F0FE431B0E1B027A691343D7
:1042D0007B61124B9B6803F4FE031B0C7A6913434A
:1042E0007B610AE00D4BDB6803F07F037A691343BF
:1042F0007B6102E000237B6100BFFB687A699A4022
:10430000BB681A437B685A631C37BD465DF8047B63
:10431000704700BFFFFF80808080FFFFB081E00F0B
:1043200080B584B000AF786039603B681B79FB7260
:10433000FB7A002B06D11B48002100F085F80346CC
:10434000FB7208E01748002100F07EF84FF4FA40B5
:10435000002100F079F87B680A225A603B681B78DC
:104360001A063B68DB781B0403F4F8131A43FB7A44
:104370001B0203F4FE431A433B685B781B011A439C
:104380003B689B781343FB603B685B79002B03D051
:10439000FB6843F00803FB607B68FA681A6010371B
:1043A000BD4680BD405DC60080B584B000AF78607A
:1043B00039607B6808225A603B689B7878681946A8
:1043C0000122FFF71DFF3B681B781A073B685B78EB
:1043D0001B0513431A463B685B681A433B68DB784E
:1043E0001B011343FB603B685B7A002B03D0FB6827
:1043F00043F08073FB603B689B7A002B03D0FB6823
:1044000043F00403FB603B681B7A002B03D0FB687E
:1044100043F00203FB603B68DB7A002B03D0FB68B0
:1044200043F00103FB603B689B781B04FA6813436D
:10443000FB603B685B68FA681343FB607B68FA6863
:104440001A611037BD4680BD80B584B000AF78607A
:1044500039607A68134B9A4202D9124B7B6006E0AE
:104460007B68B3F5FA4F02D24FF4FA437B603B68A6
:10447000002B03D10C4800F0DDFA38603A687B6805
:1044800013445A1E7B68B2FBF3F3FB60FB68002BFE
:1044900002D0FB68013BFB60FB68DBB218461037BB
:1044A000BD4680BD405DC6004081040080B582B03D
:1044B00000AF78607B68002B08D1114800F0BAFA91
:1044C00078607B68002B01D101237B607A680D4BFB
:1044D0009A4201D90B4B7B607B6803F5742303F28E
:1044E0003F237B607A68084BA3FB02139B0C7B6025
:1044F0007B68DBB2013BDBB218460837BD4680BDA6
:10450000408104000048E80183DE1B4380B487B08B
:1045100000AFF860B9607A60FB6803F10473DA00F9
:10452000BB6813449B007B617B697A681A601C3707
:10453000BD465DF8047B704780B485B000AF7860FD
:1045400039607B6803F10473DA003B6813449B0015
:10455000FB60FB681B6818461437BD465DF8047B9A
:10456000704700BF80B400AF044BDB6C1B0EDBB2A6
:104570001846BD465DF8047B704700BFB081E00F70
:1045800080B400AF054BDB6C03F47F031B0CDBB284
:104590001846BD465DF8047B704700BFB081E00F50
:1045A00080B582B000AFFFF7EBFF03464A2B04D083
:1045B000792B02D0482B22D023E0144B1B699BB2ED
:1045C00003F03F039BB21B02FB80104B9B699BB225
:1045D00003F0F0039AB2FB881343FB800B4BDB69BB
:1045E00003F0F0031B099AB2FB881343FB80FB889E
:1045F000B3F5017F01D3064B04E0064B02E0054B07
:1046000000E0002318460837BD4680BDD0FF0FE00C
:1046100000366E010048E80180B584B000AF7860D4
:1046200039607A683B689A4294BF00230123DBB269
:10463000FB6006481E21FA68FFF768FF044808215E
:10464000FA68FFF763FF1037BD4680BD00800C405D
:1046500004800C4080B582B000AF07481E21FFF7F0
:104660006BFF786005480821FFF766FF38607B68BC
:1046700018460837BD4680BD00800C4004800C40C1
:1046800080B582B000AF214B5B6903F4E063B3F502
:10469000007F1CD0B3F5007F05D8002B25D0B3F5E3
:1046A000807F1FD02AE0B3F5C06F24D0B3F5E06F50
:1046B0001ED0B3F5407F21D1FFF754FF0346122BE4
:1046C00002D9134B7B601CE0124B7B6019E0FFF7B3
:1046D00049FF0346122B02D90F4B7B6011E00F4BB1
:1046E0007B600EE00E4B7B600BE00E4B7B6008E0C6
:1046F0000D4B7B6005E00D4B7B6002E000237B608F
:1047000000BF7B6818460837BD4680BD00800C405E
:10471000804F120040420F0040B56400C0CF6A00D5
:10472000C0D8A700809FD500406F4001003FAB017B
:1047300080B582B000AF0D4800F02CFA0346FB7044
:10474000FB78072B05D0082B07D103F081FF786099
:1047500006E0FFF795FF786002E000237B6000BF72
:104760007B6818460837BD4680BD00BF06000C00B8
:1047700080B485B000AF7860284BDB6B002B0CBF9A
:1047800000230123BB72254B41F67132DA63234BC0
:104790005B6803F00703FB60FB68012B01D9042B66
:1047A00002D10023FB7202E00123FB7200BF7A6892
:1047B0001B4B9A4207D9FB7A002B01D0052300E05E
:1047C0000423FB6016E07A68154B9A420BD87A688E
:1047D000144B9A4207D9FB7A002B01D0032300E047
:1047E0000123FB6006E0FB7A002B01D0022300E0EE
:1047F0000023FB60094B094A526822F00701FA685E
:104800000A435A60BB7A002B02D0044B0022DA63C1
:104810001437BD465DF8047B704700BF00000C40B4
:104820000048E8010024F40080B500AF03F006FF63
:1048300003461846FFF79CFF80BD00BF90B585B0CA
:1048400000AF78600023BB607B68344A934203D09A
:10485000334A934200D000E000BF786800F09AF934
:104860000346FB607B682D4A934203D02C4A934257
:1048700006D00CE02B4B9B6A03F00303FB6006E0C1
:10488000284B9B6A03F00C039B08FB6000BFFB688E
:10489000032B3AD801A252F823F000BFD3480000FE
:1048A000AD480000B5480000BD48000003F062FFBD
:1048B000B8602DE003F072FFB86029E003F0A4FEB9
:1048C0000446FFF7C7FE0346013324FA03F3BB6037
:1048D0001EE00023BB607A68104B9A4203D07A68CE
:1048E0000F4B9A4210D10F4B9A6A79680B4B994241
:1048F00001D1102300E0142322FA03F3002B03D08C
:1049000003F042FFB86003E002E00023BB6000BF99
:10491000BB6818461437BD4690BD00BF02001800A2
:1049200003001A0000800C4080B483B000AF7860B0
:10493000094B5B6D03F00103002B00D006E000BFC4
:10494000054B1A6D7B681340002BF9D10C37BD461F
:104950005DF8047B704700BF00800C4090B587B0C5
:1049600000AF78600B46FB7000233B617B681B0A3D
:1049700003F00F03013B092B49D801A252F823F0A1
:10498000C5490000CB490000A94900000F4A0000BA
:104990000F4A0000D1490000DB4900000F4A000027
:1049A0000F4A0000E54900001B4B7B611B4800F0EB
:1049B00041F80446FFF7F4FD034620461946FFF789
:1049C0002BFE12E0164B7B610FE0164B7B610CE077
:1049D000154B7B6101233B6107E0144B7B61102386
:1049E0003B6102E0124B7B6100BF7B681B0B03F055
:1049F0001F03FB603B69002B02D03869FFF794FF6F
:104A0000FB787869F9681A46FFF780FD00E000BF7F
:104A10001C37BD4690BD00BF40800C4000430200E3
:104A200008800C4044800C4058800C4060800C4052
:104A300078800C4080B584B000AF78607B6803F468
:104A40007813B3F5801F45D0B3F5801F12D8B3F5A6
:104A5000802F2AD0B3F5802F05D8002B21D0B3F5B5
:104A6000003F2ED087E0B3F5402F7CD0B3F5602F08
:104A70007DD080E0B3F5B01F67D0B3F5B01F06D886
:104A8000B3F5901F34D0B3F5A01F51D073E0B3F548
:104A9000D01F48D0B3F5201F38D0B3F5C01F14D0B5
:104AA00069E003F0D5FDF86068E003F0D1FDF8603F
:104AB000354B9B6803F00F03FA6822FA03F3FB609F
:104AC0005CE003F0A1FDF86058E03048FFF7B6FE67
:104AD000F86053E02D48FFF7B1FEF8602A4B9B6E5B
:104AE00003F0F0031B09FA6822FA03F3FB6045E0C8
:104AF0002648FFF7A3FEF860234B9B6E03F4706318
:104B00001B0AFA6822FA03F3FB6037E01F48FFF73D
:104B100095FEF8601C4B9B6E03F00303FA6822FAC3
:104B200003F3FB602AE01A48FFF788FEF86025E0EF
:104B30001748FFF783FEF860134B1B6F03F0030366
:104B4000FA6822FA03F3FB6018E01148FFF776FEDB
:104B5000F8600D4B1B6F03F030031B09FA6822FA53
:104B600003F3FB600AE0FFF7E3FDF86006E0FFF700
:104B700087FDF86002E00023FB6000BFFB68184679
:104B80001037BD4680BD00BF00800C4002001800F9
:104B900003001A0080B485B000AF78600123FB7376
:104BA0007B6803F00F03BB60BB68013B052B77D824
:104BB00001A252F823F000BFD14B0000074C0000C7
:104BC000434C0000A14C0000A14C00007F4C0000B1
:104BD000384BDB6A03F47053B3F5805F09D0B3F54B
:104BE000005F03D0B3F5006F06D008E00223FB732B
:104BF00008E00323FB7305E00423FB7302E00523B5
:104C0000FB7300BF4FE02B4B9B6A03F00303022BA7
:104C100006D0032B07D0012B08D10323FB730FE031
:104C20000223FB730CE00623FB7309E0214B9B6A14
:104C300003F48033002B02D00923FB7300E000BF94
:104C400031E01C4B9B6A03F00C03082B06D00C2BA5
:104C500007D0042B08D10323FB730FE00223FB735F
:104C60000CE00623FB7309E0124B9B6A03F48013EC
:104C7000002B02D00923FB7300E000BF13E00D4BB3
:104C80001B6803F08053002B03D0B3F1805F03D087
:104C900009E00723FB7302E00823FB7300BF02E077
:104CA0000023FB7300BFFB7B18461437BD465DF83D
:104CB000047B704700800C4090B589B000AF7860ED
:104CC0000B46FB700323FB610323FB7600233B6150
:104CD0007B6803F00F03FB60FB68013B052B00F2D0
:104CE000FE8001A252F823F0014D0000ED4D0000BE
:104CF000ED4D0000DF4E0000DF4E0000B54E00001D
:104D0000FB78023B072B00F2EE8001A252F823F061
:104D1000314D00003B4D0000454D00008F4D00001F
:104D2000E74E0000E74E0000E74E0000E74E0000AF
:104D30000423FB610023FB7639E00323FB6101239D
:104D4000FB7634E00223FB610223FB76FFF728FCAD
:104D500003465C1CFFF724FC034620461946FFF778
:104D60005BFC03F0F5FC0246624B9A4206D9624BAB
:104D7000614A126842F060021A6018E05E4B5E4AB7
:104D8000126822F0600242F020021A600FE0012354
:104D9000FB610323FB76FFF703FC03465C1CFFF774
:104DA000FFFB034620461946FFF736FC00BFFB7E9B
:104DB00018460121012200F017F9FFF735FD4E4B8F
:104DC000FA695A624D48FFF735FE0446FFF7E8FBE3
:104DD000034620461946FFF71FFC00F0C5FB03F011
:104DE00013FCB860B868FFF7C3FC79E0FB78013BBF
:104DF000082B7AD801A252F823F000BF214E000000
:104E0000274E0000374E0000EB4E0000EB4E000036
:104E1000474E0000EB4E0000EB4E00006B4E0000D2
:104E200000237B6126E000200121012200F0DCF854
:104E300002237B611EE001200121012200F0D4F851
:104E400001237B6116E003F0DFFBB860FFF7A8FBEE
:104E50000346B8681946FFF7DFFB29480421012201
:104E6000FFF754FB03237B6104E000237B610123F4
:104E70003B6100BFFB68022B0DD11F4A1E4B9B6A92
:104E800023F4803323F00303796919433B691B043E
:104E90000B43936224E0184A174B9B6A23F4801358
:104EA00023F00C037969890019433B691B050B4307
:104EB000936215E0FB78072B02D0082B07D015E092
:104EC0000D4B0D4A126822F080521A6006E00A4B20
:104ED000094A126842F080521A6000BF00E000BF29
:104EE000FFF7B8FB02E000BF00E000BF2437BD467B
:104EF00090BD00BF0048E80100800C400043020064
:104F000040800C4090B587B000AF0346FB71FB7941
:104F1000052B5FD801A252F823F000BF354F0000E7
:104F20003F4F00004D4F00005B4F0000654F0000F9
:104F30006F4F0000294BDB6ADBB27B611EE0274B21
:104F4000DB6A03F47F431B0A7B6117E0234BDB6AB8
:104F500003F47F031B0C7B6110E0204BDB6A1B0E0C
:104F60007B610BE01D4B1B6BDBB27B6106E01B4BD7
:104F70001B6B03F47F431B0A7B6100BF1120FFF70B
:104F800009FE0346FB74FB7C052B01D1FFF74CFCAB
:104F9000134A134BDB6823F4FF6323F00703F9790B
:104FA000090219437B690B43D360FB7C052B05D1B8
:104FB00003F02AFBF860F868FFF7DAFB0948FFF70F
:104FC00039FD0446FFF7ECFA034620461946FFF781
:104FD00023FB00E000BF1C37BD4690BDB081E00F51
:104FE00000800C400043020080B586B000AF13463D
:104FF0000246FA710A46BA717B71FB79042B4AD8D2
:1050000001A252F823F000BF5550000047500000A5
:105010002B5000001D5000003950000001233B615F
:105020000223FB6001237B611DE004233B61082315
:10503000FB6003237B6116E010233B612023FB60B0
:1050400005237B610FE040233B618023FB60072346
:105050007B6108E04FF480733B614FF40073FB60A9
:1050600009237B6100BFBB79002B0ED00C4B3A6942
:105070001A627B79002B0BD000BF0A487969FFF7D1
:105080005BFA0346002BF8D002E0054BFA681A627F
:1050900000F06AFA00E000BF1837BD4680BD00BFCF
:1050A00000800C402C800C4080B483B000AF0346DD
:1050B000FB71084B97F907205209F97901F01F019C
:1050C000012000FA01F143F822100C37BD465DF8CB
:1050D000047B704700E100E080B483B000AF03467A
:1050E000FB71094B97F907205209F97901F01F016B
:1050F000012000FA01F1203243F822100C37BD469E
:105100005DF8047B704700BF00E100E080B483B02D
:1051100000AF0346FB71094B97F907205209F97953
:1051200001F01F01012000FA01F1603243F8221062
:105130000C37BD465DF8047B704700BF00E100E01E
:1051400080B487B000AFF860B9607A60FB6803F1A3
:105150000473DA00BB6813449B007B617B697A6847
:105160001A601C37BD465DF8047B704780B489B077
:1051700000AF7860F970BA707B707B681A013C4BA5
:105180009B681344BB61BB78002B02D0BB69FB61F9
:1051900005E07B681A01364BDB681344FB61BB6991
:1051A000DB687B617B69002B02D0BA787B691A725D
:1051B000FB6A002B14D0FB699B6803F040639B0ED5
:1051C0003B613B69032B03D1FB69FA6A1A6007E074
:1051D0003B693A6B9A40FB6A13441A46FB691A60B2
:1051E000BB6A002B12D0FB699B689B0F3B613B693C
:1051F000032B03D1FB69BA6A5A6007E03B693A6B3B
:105200009A40BB6A13441A46FB695A607B680122C4
:1052100002FA03F3FB607B78002B03D0144BFA688F
:105220009A6102E0124BFA68DA61BB78002B03D076
:105230000F4BFA685A6302E00D4BFA681A63FB6978
:105240009B6823F47F5323F03703BB603B6B1B0148
:10525000BA681343BB60FB78BA681343BB60FB6951
:10526000BA689A602437BD465DF8047B704700BF7A
:1052700000200C4080B58AB000AF334B03F580535B
:105280001B68BB61304B03F580530C331B68BA6954
:105290001340BB612C4B9B6B7B61BA697B691340EC
:1052A0003B620023FB6149E000237B623BE03B6AF9
:1052B00003F00103002B30D0234B9B683B6101229C
:1052C0007B6A02FA03F3FB601F4B03F5805308333C
:1052D000FA681A607B6A1B013A691344DB68BB6099
:1052E000BB68002B19D0BB681B7A7B60BB681B7A3C
:1052F00083F00103DAB2BB681A72BB681B68002B2B
:105300000BD0BB681B68786A7A68002A0CBF002241
:105310000122D1B2BA68526898473B6A5B083B6287
:105320007B6A01337B623B6A002BC0D17B69DA4325
:10533000BB6913403B62FB690133FB61FB69012BD5
:10534000B2DD2837BD4680BD00200C4080B588B056
:1053500004AFF8607B600B46FB721346BB72FA7AAF
:10536000BB7A79680091B9690191F9690291F8688D
:105370000121FFF7FBFE044BFA68012101FA02F25A
:105380009A621037BD4680BD00200C4080B584B0C5
:1053900000AF786039601F4B9B68FB607B681B0126
:1053A000FA6813443A689268DA603B681B78002B0D
:1053B00006D0184B7A68012101FA02F29A6305E0DF
:1053C000144B7A68012101FA02F2DA63114B3A6850
:1053D00051687A6802F5886243F822103B685B786E
:1053E000002B0ED00B4B7A68012101FA02F203F573
:1053F000805308331A60084879680122FFF7A0FE3D
:1054000004E0054879680022FFF79AFE1037BD4690
:1054100080BD00BF00200C400C300C4080B487B031
:1054200000AFF8600B467A60FB72FB7A002B03D06A
:10543000154B9B687B6102E0134BDB687B61FB686B
:105440001B017A6913447B617B681B789A077B6830
:105450009B781B071A437B685B789B061A437B6823
:105460009B781B0613431A467B681B799B041A43DF
:105470007B68DB789B031A437B699A601C37BD46C7
:105480005DF8047B704700BF00200C4080B582B0FF
:1054900000AF786010480121FFF760FA00F020F8B3
:1054A0000020FFF733FE0020FFF7FEFD0B4B03F556
:1054B00080530C334FF000421A60084B7A685268F0
:1054C0009A60064B7A681278520142F001025A60E3
:1054D0000837BD4680BD00BF0003020000200C401D
:1054E00080B582B000AF0020FFF7F6FD1C4B002214
:1054F0005A601B4B40F6FF72DA61194B40F6FF729F
:105500005A62174B40F6FF72DA62154B40F6FF7293
:105510005A63134B40F6FF72DA63114B0122DA64CF
:105520000F4B03F580530C3300221A600C4B03F52C
:10553000805308330B4A1A6000237B6009E0084B54
:105540007A6802F58862002143F822107B680133F3
:105550007B607B680B2BF2DD0837BD4680BD00BF4A
:1055600000200C40FF0F008080B400AF034BDA6ACC
:10557000034B1A60BD465DF8047B704700800C4009
:10558000A405002080B487B000AFF860B9607A60ED
:10559000FB6803F10473DA00BB6813449B007B6172
:1055A0007B697A681A601C37BD465DF8047B7047DA
:1055B00080B485B000AFF860B9607A60FB681A68A3
:1055C000BB68DB431A407B681A43FB681A601437D8
:1055D000BD465DF8047B704780B483B000AF0346DE
:1055E0003960FB71FB79002B0DD0FB79012B0AD0C0
:1055F000FB79022B07D0FB79032B04D0FB79042B1A
:1056000001D0FB79052B0948FA793B68012101FAA1
:1056100003F319461346DB0013449B000344103385
:1056200059600C37BD465DF8047B70470060004050
:1056300080B483B000AF03463960FB71FB79002B67
:105640000DD0FB79012B0AD0FB79022B07D0FB7917
:10565000032B04D0FB79042B01D0FB79052B0948DF
:10566000FA793B68012101FA03F319461346DB007E
:1056700013449B000344103319600C37BD465DF89A
:10568000047B70470060004080B586B000AFB96011
:105690007A600246FA73BB73FB7B002B0DD0FB7B59
:1056A000012B0AD0FB7B022B07D0FB7B032B04D002
:1056B000FB7B042B01D0FB7B052BBB68072B0ED893
:1056C000BB689B0007229A40F97BBB689B0001FAEC
:1056D00003F31A4811461A46FFF76AFF10E0BB6849
:1056E000083B7B617B699B0007229A40F97B7B69C1
:1056F0009B0001FA03F3124811461A46FFF758FFC0
:10570000BB7B1048B9681A46FFF73CFF97F820307A
:105710000D48B9681A46FFF735FF0C4BBA680121EE
:1057200001FA02F2C3F81C2197F824300848B9683E
:105730001A46FFF727FF1837BD4680BD00610040BD
:1057400004610040086100400C61004000600040BE
:105750001061004090B585B000AFB9607B60034632
:10576000FB731346BB73FB7B002B0DD0FB7B012B24
:105770000AD0FB7B022B07D0FB7B032B04D0FB7BE7
:10578000042B01D0FB7B052BBB7B002B0DD07B6852
:10579000002B05D0FB7B1846B968FFF749FF04E0F2
:1057A000FB7B1846B968FFF717FFBB68072B1DD8AE
:1057B0002B48FA7B2A4CF97B0B46DB000B449B0001
:1057C00023445968BB689B000F2404FA03F3DB43AE
:1057D0001940BC7BBB689B0004FA03F319431346D2
:1057E000DB0013449B000344596024E01C48FA7B0F
:1057F0001B4CF97B0B46DB000B449B002344083316
:105800001968BB6803F18043083B9B000F2404FA2E
:1058100003F3DB431940BC7BBB6803F18043083BC7
:105820009B0004FA03F319431346DB0013449B0067
:10583000034408331960BB7B002B0DD17B68002B20
:1058400005D0FB7B1846B968FFF7F2FE04E0FB7B4E
:105850001846B968FFF7C0FE1437BD4690BD00BFBB
:105860000060004080B487B000AFF860B9607A6033
:10587000FA68114B9A4208D1BB68012B05D87B68A6
:105880001B0C1B04002B00D100BFBB68002B02D0F7
:10589000012B04D00AE0FB6810337B6103E0FB6856
:1058A00014337B6100BF7B697A681A601C37BD4680
:1058B0005DF8047B704700BF0020084080B485B0CD
:1058C00000AF786039600023FB603B681B7883F091
:1058D0000103DBB2002B08D07B689B6803F0010357
:1058E000002B02D07B6802225A603B685B78002B59
:1058F00003D0FB6843F48053FB603B689B78002B2C
:1059000003D0FB6843F48063FB603B68DB78002BCB
:1059100003D0FB6843F40063FB603B681B79002BFA
:1059200003D0FB6843F40073FB603B685B79002B9A
:1059300003D0FB6843F48073FB603B689B79002BCA
:1059400003D0FB6843F04003FB603B68DB79002B2E
:1059500003D0FB6843F08003FB603B681B7A9B002D
:10596000FA681343FB603B685B7A1B01FA681343D8
:10597000FB603B689B7AFA681343FB607B68FA68BC
:105980001A603B681B78002B08D07B689B6803F08B
:105990000103002B02D17B6801225A601437BD46F7
:1059A0005DF8047B704700BF80B487B000AFF8603B
:1059B000B9607A60FA68114B9A4208D1BB68012B32
:1059C00005D87B6823F0FF03002B00D100BFBB6824
:1059D000002B02D0012B04D00AE0FB6818337B6156
:1059E00003E0FB681C337B6100BF7B697A681A6047
:1059F0001C37BD465DF8047B704700BF002008409F
:105A000080B483B000AF786039607B681B6C03F0B2
:105A10000103002B00D006E000BF7B685A6C3B6896
:105A20001340002BF9D10C37BD465DF8047B70475D
:105A300080B586B000AFF860B9607A60BB68002BB3
:105A400012D1FA68164B9A4202D1164B7B6107E0DD
:105A5000FA68154B9A4202D1144B7B6100E01BE0BF
:105A60007869FEF7E7FFB860BB685A017B68B2FB54
:105A7000F3F33B613B69203B3B613B69DB003B61EE
:105A80003A6947F6F87313403B61F8680421FFF761
:105A9000B7FFFB683A69DA601837BD4680BD00BFC2
:105AA00000400840700714000044084070171600BA
:105AB00080B483B000AF78600B46FB70FB78002B9E
:105AC00008D000BF7B685B6C002BFBD17B68012298
:105AD0001A6402E07B6800221A640C37BD465DF848
